:1000000045C0000060C000005EC000005CC0000091
:100010005AC0000058C0000056C0000054C0000084
:1000200052C0000050C000004EC000004CC0000094
:100030004AC000007EC0000046C0000044C000006E
:1000400042C0000040C000003EC000003CC00000B4
:100050003AC0000038C0000036C0000034C00000C4
:1000600032C0000030C000002EC000002CC00000D4
:100070002AC0000028C0000026C0000024C00000E4
:1000800022C0000020C000001EC0000011241FBEBE
:10009000CFEFD0E4DEBFCDBF11E0A0E0B1E0EAE3F6
:1000A000FCE000E00BBF02C007900D92A23BB1073D
:1000B000D9F721E0A2EBB1E001C01D92A83EB20742
:1000C000E1F7C2D4B8C59CCF60932101709322019F
:1000D00080932301909324016093E2017093E301E4
:1000E0008093E4019093E50108958BE08093810073
:1000F0008DE790E0909389008093880082E0809360
:100100006F001092850010928400809121019091DF
:100110002201A0912301B09124018093E2019093E8
:10012000E301A093E401B093E5018FB780688FBF2E
:1001300008951F920F920FB60F9211248F939F93E1
:10014000AF93BF938091E2019091E301A091E4010C
:10015000B091E5010197A109B1098093E201909363
:10016000E301A093E401B093E501892B8A2B8B2B4B
:1001700099F481E08093E601809121019091220120
:10018000A0912301B09124018093E2019093E301B7
:10019000A093E401B093E501BF91AF919F918F913E
:1001A0000F900FBE0F901F9018958FEE82B9000030
:1001B000009B29C0019B29C0029B29C0039B29C029
:1001C0008FED82B90000009B26C0019B26C0029BD8
:1001D00026C0039B26C08FEB82B90000009B23C082
:1001E000019B23C0029B23C0039B23C08FE782B9DE
:1001F0000000009B20C0019B20C0029B20C0039BED
:1002000020C080E0089581E3089584E3089587E3A2
:1002100008958AE2089582E3089585E3089588E3C6
:10022000089580E3089583E3089586E3089589E3BC
:10023000089583E2089581E4089582E4089583E4B3
:10024000089584E40895CF93DF93EC01AEDF90E04E
:100250009093B5018093B401C130D10549F1C2300A
:10026000D10551F0209759F431E020E0009709F4CE
:1002700030E0C32FD22F03C0892BF9F41CC0C1304A
:10028000D105D9F48334910541F48091B3018131D2
:10029000A1F481E08093B30110C08434910569F426
:1002A0008091B301813049F481E18093B30105C0AD
:1002B000C2E0D0E002C0C0E0D0E0CE01DF91CF913B
:1002C000089588B95E985D985F9A00005F9883EF03
:1002D00091E00197F1F700C00000089588B95E9A97
:1002E0005D985F9A00005F9883EF91E00197F1F7C6
:1002F00000C0000008958FEF8AB987B987E893E1BD
:100300000197F1F700C0000088E3DBDF8CE0D9DF64
:1003100086E0D7DF81E0D5DF83EF91E00197F1F749
:1003200000C0000080E8CDCF08950F931F93CF93B6
:10033000DF93883070F48B01880F880F880F805C02
:10034000C0DFE801085F1F4F8991C8DFC017D107E0
:10035000D9F7DF91CF911F910F91089518161906C3
:100360005CF00895000021503109E1F74F5F5F4FC5
:100370008417950719F4089540E050E027E033E032
:10038000F1CF5E9888B95F9A00005F9882E090E0B4
:10039000E5CF089581E0F5CF0895813118F48158B3
:1003A000F0CF08958155EDCF0895CF93DF93EC0101
:1003B000009719F0019759F013C091E080E0209167
:1003C000D701233009F090E0C92FD82F09C091E060
:1003D00080E02091D701233009F090E0C92FD82F79
:1003E000C130D10539F48091B301D7DF8CE0C9DF8A
:1003F00080E074DFCE01DF91CF91089584E690E034
:10040000ADDF88E3BEDF86E0BCDF8FE0BADF81E0EE
:10041000B8DF8AE090E0A2CF08955E9A88B95F9A2B
:1004200000005F9881E090E099CF08950F931F93AB
:10043000CF93DF93182FEB01ADDF8881882351F034
:1004400001E0010F812FA9DF8991E7DF102F88815B
:100450008111F6CFDF91CF911F910F9108950F93E6
:100460001F93CF93DF938C0182309105C9F034F450
:10047000009709F46CC0019751F05CC0843091057D
:1004800009F448C0ACF0059709F44CC053C0809102
:10049000B4019091B501839709F4C8C1E80164C023
:1004A0008091B4019091B501839709F0C2C1D0C188
:1004B0008091B4019091B501839709F44BC080916C
:1004C000B2018E3108F0BFC08091B301E5E0F1E0E8
:1004D0002FE031E0E80155E040E0813029F49081DF
:1004E000911102C0C52FD42F31962E173F07A9F7BF
:1004F000E0E0F1E025E031E045E090E0813129F4F1
:100500005081511102C0C42FD92F3196E217F30741
:10051000A9F792C18091B4019091B501839709F038
:1005200097C11BC08091B4019091B501839709F0E8
:100530008FC116C00430110509F481C005301105C2
:1005400009F4F8C00130110509F082C10CC0C1E006
:10055000D0E00AC0C1E0D0E007C0C1E0D0E004C0F4
:10056000C1E0D0E001C0E80181E18093B301E5E0A2
:10057000F1E092E0908393E0918394E0928398E09D
:1005800093839CE0948394E1958399E196839BE126
:1005900097839DE190879EE19187E0E0F1E09AE00A
:1005A00090839FE09183828382E1838386E18483C9
:1005B0000130110541F065E571E081E037DF80E051
:1005C0008DDE82E08BDE81E090E01FD3182F8AE081
:1005D00090E01BD3880F982F990F990F890F180F50
:1005E0001093E70120ED37E04DEC67EF5BEFE09112
:1005F000E701E49F812D1124869586958695880FC5
:10060000982F990F990F890FE81BF0E0E15FFE4FDB
:10061000808185B96BB9E091E701E49FE12D112458
:10062000E695E695E695F0E0E15FFE4F808185B9BD
:100630005BB921503109D9F615B88E0109C10430D2
:10064000110529F405C104E010E001C08E0164E742
:1006500071E081E0EBDE8FE1A0DE8091B201CDECB4
:100660008C9F812D1124869586958695805DD5DE9B
:1006700080E293DE8091B2018C9F912D112496959A
:1006800096959695990F292F220F220F920F891B6D
:10069000805DC3DE20E23EE44DEC6BEF57EFE0916E
:1006A000B201E49FE12D1124E695E695E695F0E090
:1006B000E15FFE4F808185B96BB9E091B201E49FA3
:1006C000812D1124869586958695880F982F990FF0
:1006D000990F890FE81BF0E0E15FFE4F808185B93B
:1006E0005BB921503109D9F615B88091B2019091CA
:1006F000E701981708F0ACC0CDEC8C9F812D112438
:10070000682F6695669566958AE090E086D290910E
:10071000B2019C9F812D1124869586958695880F20
:10072000282F220F220F820F692F681B81E090E093
:1007300074D28EC0E8010530110509F471C063E977
:1007400071E081E073DE8FE128DE8091B2011DEC63
:10075000819F812D1124869586958695805D5DDE2D
:1007600080E21BDE8091B201819F912D112496952C
:1007700096959695990F292F220F220F920F891B7C
:10078000805D4BDE20E23EE44DEC6BEF57EFE091F5
:10079000B201E49FE12D1124E695E695E695F0E09F
:1007A000E15FFE4F808185B96BB9E091B201E49FB2
:1007B000812D1124869586958695880F982F990FFF
:1007C000990F890FE81BF0E0E15FFE4F808185B94A
:1007D0005BB921503109D9F615B88091B2019091D9
:1007E000E7019817F8F41DEC819F612D112466959F
:1007F000669566958AE090E010D26091B201619FA3
:10080000812D1124869586958695880F982F990FAE
:10081000990F890F681B81E090E0FFD18E0118C00D
:100820008E0116C08E0114C08E0112C002E010E0CD
:100830000FC003E010E00CC0C430D10509F406CFAE
:10084000C530D10509F477CFC130D10569F78CCE19
:10085000C801DF91CF911F910F910895CF93DF933E
:10086000CDB7DEB7E0970FB6F894DEBF0FBECDBFB1
:1008700088E0E5E2F1E0DE01119601900D928A95A3
:10088000E1F788E0EDE2F1E0DE01199601900D92CA
:100890008A95E1F788E0E5E3F1E0DE015196019009
:1008A0000D928A95E1F788E0EDE3F1E0DE015996DB
:1008B00001900D928A95E1F788E0E5E4F1E0DE0130
:1008C000919601900D928A95E1F788E0EDE4F1E0D0
:1008D000DE01999601900D928A95E1F70CDDBE013B
:1008E0006F5F7F4F80E021DDBE01675F7F4F81E05A
:1008F0001CDDBE01675F7F4F82E017DDBE01675FD1
:100900007F4F83E012DDBE016F5E7F4F84E00DDD1F
:10091000BE01675E7F4F85E008DDBE016F5D7F4FE2
:1009200086E003DDBE01675D7F4F87E0FEDCE09679
:100930000FB6F894DEBF0FBECDBFDF91CF91089503
:10094000813029F4613150F4860F27CD089582302B
:1009500029F4613118F481E1860F1FCD0895CF92FB
:10096000DF92EF92FF920F931F93CF93009721F0A6
:100970008130910531F00AC08091D701833069F44C
:1009800011C08091D701833041F40CC0009729F049
:100990008130910509F050C005C01092B20180E08D
:1009A00090E04AC0F7DC05E011E02FE031E0F8010B
:1009B000808181508193E217F307D1F70F2EF0E089
:1009C000CF2EF1E0DF2EF02D0F2EF5E0EF2EF1E02F
:1009D000FF2EF02DF601808181508193EE15FF05E9
:1009E000D1F78091B2018F5F8093B201C0E0F8012E
:1009F00061918F01613178F481E0A2DF84E06EDCE7
:100A0000C93049F487E06ADC87E068DC87E066DCAF
:100A100087E064DC03C0CF5FCA3049F7F60161911B
:100A20006F01613120F482E08BDF84E057DCCE146B
:100A3000DF04A1F781E090E0CF911F910F91FF902B
:100A4000EF90DF90CF90089580EF81B98FE082B969
:100A50008FEF84B915B887B918B88AB91BB8FEDE0C
:100A6000CDDC98DCE7EDF1E010828AE090E0A0E0D8
:100A7000B0E081839283A383B48385839683A78325
:100A8000B0872FE232E032872187ECECF1E0108270
:100A900044E650E060E070E04183528363837483F6
:100AA00045835683678370872FEA34E03287218736
:100AB000E1ECF1E0108281839283A383B483858388
:100AC0009683A783B08723E231E032872187E6EB64
:100AD000F1E0108281839283A383B483858396831C
:100AE000A783B08785ED91E092878187E091190116
:100AF000F0911A0181809280A380B480CBE1D1E093
:100B00000F2EF1E2EF2EF1E0FF2EF02DE991F99199
:100B1000582D492D3A2D2B2D81809280A380B480B1
:100B200002C04B015C01652F742F832F922FA5010A
:100B3000940149D0582D492D3A2D2B2D6115710561
:100B40008105910571F7CE15DF0501F762E070E0D0
:100B500080E090E0B9DAC9DAC9E1D1E00881198111
:100B6000F80185819681A781B08541815281638199
:100B7000748184179507A607B70789F480810184DB
:100B8000F285E02D082E000C990B0995D8018C9365
:100B9000E881F981158216821782108609C0880DB6
:100BA000991DAA1DBB1DF80185839683A783B08775
:100BB0002296CE15DF0591F68091E6018823E1F3B8
:100BC0001092E601C9CFA1E21A2EAA1BBB1BFD01A0
:100BD0000DC0AA1FBB1FEE1FFF1FA217B307E4071C
:100BE000F50720F0A21BB30BE40BF50B661F771F74
:100BF000881F991F1A9469F7609570958095909554
:100C00009B01AC01BD01CF010895F999FECF92BDC2
:100C100081BDF89A992780B50895262FF999FECFBE
:100C20001FBA92BD81BD20BD0FB6F894FA9AF99A09
:0A0C30000FBE01960895F894FFCF5F
:100C3A000A0F111216020304080C14191B1D1E3F79
:100C4A00065B4F666D7D077F6FD701CC01C101B688
:100C5A000101000000040A051F14060A121F1F1FC3
:100C6A001F1F1F1F1F04040E151F0E0A151F15151F
:100C7A001F11151F0000000A0004110E00000A1FB0
:100C8A001F0E0400005072657373202320535441D1
:100C9A00525421202055736520434420746F206DDF
:100CAA006F766500594F552057494E212020202044
:100CBA0020202020596F75722073636F7265206936
:100CCA00733A0047414D45204F5645522120202076
:100CDA00202020596F75722073636F7265206973C3
:020CEA003A00CE
:00000001FF
