:100000000C9446000C9465000C9465000C946500FB
:100010000C9465000C9465000C9465000C946500CC
:100020000C9465000C9465000C9465000C946500BC
:100030000C9465000C9465000C9465000C946500AC
:100040000C9465000C9465000C9465000C9465009C
:100050000C9465000C9465000C9465000C9465008C
:100060000C9465000C9465000C9465000C9465007C
:100070000C9465000C9465000C9465000C9465006C
:100080000C9465000C9465000C94650011241FBE4F
:10009000CFEFD0E4DEBFCDBF11E0A0E0B1E0E0EAF9
:1000A000F2E000E00BBF02C007900D92AE30B10746
:1000B000D9F711E0AEE0B1E001C01D92A031B10767
:1000C000E1F70E943D010C944E010C940000CF9387
:1000D000C82F8A3019F48DE00E9467009091C0000B
:1000E00095FFFCCFC093C60080E090E0CF910895CB
:1000F00080B180E488B9009B02C0019902C080E60B
:1001000088B980B190E08095909583709927039786
:1001100011F0029902C080E788B980B190E0809523
:10012000909585709927059741F080B190E0809572
:10013000909586709927069711F488E388B980B165
:1001400090E08095909587709927079751F0039BD1
:1001500008C080B190E080959095897099270997A3
:1001600011F48CE388B980B190E0809590958A7005
:1001700099270A9781F080B190E0809590958B70D7
:1001800099270B9741F080B190E0809590958C7005
:1001900099270C9711F48EE388B980B190E080958F
:1001A00090958D7099270D9781F080B190E08095A2
:1001B00090958E7099270E9741F080B190E08095D0
:1001C00090958F7099270F9711F48FE388B9089550
:1001D00080910E0190910F018130910579F030F0FE
:1001E00082309105D9F0039701F130C018B881E051
:1001F00090E090930F0180930E0128C0009907C0F2
:1002000082E090E090930F0180930E011FC081E087
:1002100090E090930F0180930E0118C083E090E06E
:1002200090930F0180930E0111C0009907C083E0E5
:1002300090E090930F0180930E0108C0009B06C0D0
:1002400081E090E090930F0180930E0180910E0168
:1002500090910F01029781F488B1811103C081E070
:1002600088B9089588B18F3111F418B8089588B10C
:10027000880F88B94299409A089511B88FEF82B9D2
:1002800087B918B810920F0110920E01039B03C09A
:100290000E947800FDCF0E94E800FDCFF894FFCFC8
:0E02A0000000000200000000670000000000E7
:00000001FF
