:100000000C9446000C9465000C9465000C946500FB
:100010000C9465000C9465000C9465000C946500CC
:100020000C9465000C9465000C9465000C946500BC
:100030000C9465000C94B2000C9465000C9465005F
:100040000C9465000C9465000C9465000C9465009C
:100050000C9465000C9465000C9465000C9465008C
:100060000C9465000C9465000C9465000C9465007C
:100070000C9465000C9465000C9465000C9465006C
:100080000C9465000C9465000C94650011241FBE4F
:10009000CFEFD0E4DEBFCDBF11E0A0E0B1E0E8E2F9
:1000A000F8E000E00BBF02C007900D92AC32B10740
:1000B000D9F711E0ACE2B1E001C01D92A134B10763
:1000C000E1F70E94BE030C9412040C940000CF933D
:1000D000DF93CDB7DEB781E890E02BE0FC01208311
:1000E00088E890E02AE030E0FC01318320838FE64D
:1000F00090E022E0FC01208384E890E0FC01118282
:1001000010828091000190910101A0910201B091B3
:10011000030180932D0190932E01A0932F01B093A2
:1001200030018FE590E02FE530E0F9012081206873
:10013000FC012083DF91CF910895CF93DF93CDB75A
:10014000DEB781E890E0FC011082DF91CF91089545
:10015000CF93DF93CDB7DEB781E080932C01DF91A1
:10016000CF9108951F920F9200905F000F9211247B
:1001700000905B000F922F933F934F935F936F9389
:100180007F938F939F93AF93BF93EF93FF93CF93FF
:10019000DF93CDB7DEB780912D0190912E01A09114
:1001A0002F01B09130010197A109B10980932D0170
:1001B00090932E01A0932F01B093300180912D01D7
:1001C00090912E01A0912F01B09130010097A105CF
:1001D000B10591F40E94A800809100019091010165
:1001E000A0910201B091030180932D0190932E0103
:1001F000A0932F01B0933001DF91CF91FF91EF9148
:10020000BF91AF919F918F917F916F915F914F912E
:100210003F912F910F9000925B000F9000925F0032
:100220000F901F901895CF93DF9300D000D0CDB7DB
:10023000DEB769837A838B839C8389819A81AB81C2
:10024000BC818093000190930101A0930201B093BF
:1002500003018091000190910101A0910201B091F0
:10026000030180932D0190932E01A0932F01B09351
:1002700030010F900F900F900F90DF91CF91089564
:10028000CF93DF93CDB7DEB780913F0190914001CE
:100290008230910509F18330910530F4009771F0B7
:1002A0008130910591F032C08430910519F184308C
:1002B0009105C8F08530910521F128C081E090E0DA
:1002C0009093400180933F0121C082E090E09093A1
:1002D000400180933F011AC083E090E09093400179
:1002E00080933F0113C084E090E09093400180939D
:1002F0003F010CC085E090E09093400180933F0166
:1003000005C01092400110923F01000080913F0112
:100310009091400182309105D9F08330910530F4FD
:10032000009771F08130910579F022C084309105F9
:10033000B9F08430910580F085309105A9F018C09E
:1003400081E08093320114C082E08093320110C0BA
:1003500084E0809332010CC081E08093320108C0B8
:1003600082E08093320104C084E080933201000077
:10037000DF91CF910895CF93DF93CDB7DEB7809112
:100380003501909136018230910509F18330910554
:1003900030F4009771F08130910591F032C08430D3
:1003A000910519F184309105C8F08530910521F14E
:1003B00028C081E090E0909336018093350121C000
:1003C00082E090E090933601809335011AC083E07B
:1003D00090E0909336018093350113C084E090E063
:1003E00090933601809335010CC085E090E09093A6
:1003F00036018093350105C0109236011092350107
:100400000000809135019091360182309105D9F03C
:100410008330910530F4009771F08130910579F0C7
:100420001FC084309105B1F08430910580F0853093
:10043000910599F015C088E08093330111C088E0E0
:10044000809333010DC088E08093330109C010927E
:10045000330106C01092330103C010923301000033
:10046000DF91CF910895CF93DF93CDB7DEB7809121
:100470003A0190913B0181309105B1F081309105B5
:1004800040F08230910571F18330910509F45AC032
:1004900088C081E090E090933B0180933A01809185
:1004A0002A0180933E017DC080E290E0FC018081C2
:1004B000882F90E084709927009739F482E090E0CB
:1004C00090933B0180933A016CC081E090E090935F
:1004D0003B0180933A01109234018091290180936D
:1004E00037015FC083E090E090933B0180933A0135
:1004F00080E18093340180E290E0FC018081882FCC
:1005000090E084709927009739F081E090E0909313
:100510003B0180933A0115C080913701882359F43B
:1005200083E090E090933B0180933A018091290110
:100530008093370106C08091370181508093370145
:1005400030C02FC01092340181E090E090933B01C5
:1005500080933A0180E290E0FC018081882F90E056
:1005600084709927009739F081E090E090933B01E7
:1005700080933A0115C080913701882359F482E0B5
:1005800090E090933B0180933A0180912901809300
:10059000370106C08091370181508093370100C038
:1005A000000080913A0190913B018130910551F01A
:1005B0008130910548F08230910541F083309105FA
:1005C00039F007C0000005C0000003C0000001C0F2
:1005D0000000DF91CF910895CF93DF93CDB7DEB7C1
:1005E00080913C0190913D0181309105A1F18130D4
:1005F000910548F08230910509F445C0833091059A
:1006000009F459C068C080E290E0FC018081882F25
:1006100090E081709927009739F481E090E0909301
:100620003D0180933C0116C080E290E0FC01808196
:10063000882F90E082709927009739F482E090E04B
:1006400090933D0180933C0105C010923D011092B2
:100650003C0146C045C080E290E0FC018081882FCB
:1006600090E081709927009739F483E090E09093AF
:100670003D0180933C0134C081E090E090933D01C6
:1006800080933C012DC080E290E0FC018081882FA6
:1006900090E082709927009739F483E090E090937E
:1006A0003D0180933C011CC081E090E090933D01AE
:1006B00080933C0115C080E290E0FC018081882F8E
:1006C00090E08F3FFFEF9F0729F410923D011092B9
:1006D0003C0106C005C010923D0110923C01000093
:1006E00080913C0190913D018130910551F0813024
:1006F000910598F08230910551F08330910579F0A1
:100700000FC080912901865F8093290109C08091E3
:1007100029018A508093290103C0000001C0000014
:10072000DF91CF910895CF93DF93CDB7DEB780915E
:10073000380190913901009721F08130910541F005
:100740001AC081E090E0909339018093380113C082
:1007500081E090E0909339018093380185E290E048
:100760003091320120913301322B20913401232B1F
:10077000FC0120830000DF91CF910895CF93DF9398
:1007800000D000D0CDB7DEB781E290E0FC0110824E
:1007900082E290E02FEFFC01208384E290E02FEFD3
:1007A000FC01208385E290E0FC01108261E070E0B2
:1007B00080E090E00E9413010E94670010924001C7
:1007C00010923F01109236011092350110923901BA
:1007D0001092380184EF91E09C838B838B819C8104
:1007E0009A83898389819A81009731F089819A81DE
:1007F00001979A83898308C00E9440010E94BB012F
:100800008B819C819A8389830E9433020E94EC022F
:100810000E949303000080912C018823E1F3109241
:080820002C01E0CFF894FFCF9A
:1008280001000000142A23458F2A374514AA4D4594
:10083800AE235A4500007545008089450A179A4538
:0C0848000072A3450000000009016400DC
:00000001FF
