:100000000C9446000C9458000C9458000C94580022
:100010000C9458000C9458000C9458000C94580000
:100020000C9458000C9458000C9458000C945800F0
:100030000C9458000C9458000C9458000C945800E0
:100040000C9458000C9458000C9458000C945800D0
:100050000C9458000C9458000C9458000C945800C0
:100060000C9458000C9458000C9458000C945800B0
:100070000C9458000C9458000C9458000C945800A0
:100080000C9458000C9458000C94580011241FBE76
:10009000CFEFD0E4DEBFCDBF11E0A0E0B1E001C002
:1000A0001D92A630B107E1F70E946A000C94680126
:1000B0000C940000CF93DF93CDB7DEB78AE790E0D2
:1000C0002AE730E0F9012081206EFC012083DF91D6
:1000D000CF910895CF93DF93CDB7DEB781E290E063
:1000E000FC01108282E290E02FEFFC01208384E289
:1000F00090E02FEFFC01208385E290E0FC0110826C
:100100000E945A0088E790E0FC01808191819093E1
:10011000030180930201209102013091030180913B
:1001200000019091010182179307B8F480910201B8
:10013000909103019093010180930001809100014F
:1001400090910101969587959695879596958795B7
:100150009093050180930401BAC02091020130916F
:10016000030180910401909105018217930728F003
:1001700085E290E0FC011082AAC080910401909178
:1001800005019C01220F331F809102019091030110
:100190002817390730F085E290E021E0FC01208348
:1001A00096C02091040130910501C901880F991F63
:1001B000280F391F809102019091030128173907F8
:1001C00030F085E290E023E0FC01208380C0809144
:1001D0000401909105019C01220F331F220F331F50
:1001E00080910201909103012817390730F085E2D0
:1001F00090E027E0FC0120836AC020910401309147
:100200000501C901880F991F880F991F280F391FF1
:1002100080910201909103012817390730F085E29F
:1002200090E02FE0FC01208352C020910401309126
:100230000501C901880F991F820F931F880F991F0D
:100240009C0180910201909103012817390730F039
:1002500085E290E02FE1FC01208339C02091040168
:1002600030910501C901880F991F880F991F880FC8
:10027000991FAC01421B530B9A018091020190918E
:1002800003012817390730F085E290E02FE3FC01E5
:1002900020831DC080910401909105019C01220FD3
:1002A000331F220F331F220F331F809102019091C1
:1002B00003012817390730F085E290E02FE7FC01B1
:1002C000208305C085E290E02FEFFC0120831ACF48
:0402D000F894FFCFD0
:00000001FF
