:100000000C9446000C9465000C9465000C946500FB
:100010000C9465000C9465000C9465000C946500CC
:100020000C9465000C9465000C9465000C946500BC
:100030000C9465000C94B2000C9465000C9465005F
:100040000C9465000C9465000C9465000C9465009C
:100050000C9465000C9465000C9465000C9465008C
:100060000C9465000C9465000C9465000C9465007C
:100070000C9465000C9465000C9465000C9465006C
:100080000C9465000C9465000C94650011241FBE4F
:10009000CFEFD0E4DEBFCDBF11E0A0E0B1E0E4E6F9
:1000A000F9E000E00BBF02C007900D92AE35B1073A
:1000B000D9F711E0AEE5B1E001C01D92AC36B10751
:1000C000E1F70E9440010C94B0040C940000CF931F
:1000D000DF93CDB7DEB781E890E02BE0FC01208311
:1000E00088E890E02DE730E0FC01318320838FE643
:1000F00090E022E0FC01208384E890E0FC01118282
:1001000010828091000190910101A0910201B091B3
:10011000030180935F0190936001A0936101B0930C
:1001200062018FE590E02FE530E0F9012081206841
:10013000FC012083DF91CF910895CF93DF93CDB75A
:10014000DEB781E890E0FC011082DF91CF91089545
:10015000CF93DF93CDB7DEB781E080935E01DF916F
:10016000CF9108951F920F9200905F000F9211247B
:1001700000905B000F922F933F934F935F936F9389
:100180007F938F939F93AF93BF93EF93FF93CF93FF
:10019000DF93CDB7DEB780915F0190916001A091B0
:1001A0006101B09162010197A109B10980935F01DA
:1001B00090936001A0936101B093620180915F010F
:1001C00090916001A0916101B09162010097A10539
:1001D000B10591F40E94A800809100019091010165
:1001E000A0910201B091030180935F01909360019F
:1001F000A0936101B0936201DF91CF91FF91EF91E4
:10020000BF91AF919F918F917F916F915F914F912E
:100210003F912F910F9000925B000F9000925F0032
:100220000F901F901895CF93DF9300D000D0CDB7DB
:10023000DEB769837A838B839C8389819A81AB81C2
:10024000BC818093000190930101A0930201B093BF
:1002500003018091000190910101A0910201B091F0
:10026000030180935F0190936001A0936101B093BB
:1002700062010F900F900F900F90DF91CF91089532
:10028000CF93DF93CDB7DEB781E290E0FC0110821F
:1002900082E290E02FEFFC01208384E290E02FEFD8
:1002A000FC01208385E290E0FC0110820E94120391
:1002B00062E370E080E090E00E9413010E9467001A
:1002C00010926B0110926A010E946E0100008091F1
:1002D0005E018823E1F310925E01F6CFCF93DF93A6
:1002E000CDB7DEB780916A0190916B0182309105A4
:1002F000A9F18330910530F4009789F081309105A0
:10030000A9F0AEC08430910509F47AC0843091051B
:1003100008F45BC08530910509F48AC0A1C081E072
:1003200090E090936B0180936A019AC080E290E024
:10033000FC018081882F90E081709927009739F423
:1003400082E090E090936B0180936A0189C081E024
:1003500090E090936B0180936A0182C08091630169
:10036000282F30E080916401882F90E0845B9E4FBD
:10037000FC018081992787FD9095821793073CF0B7
:1003800082E090E090936B0180936A0169C0809154
:100390006301282F30E080916401882F90E0845B16
:1003A0009E4FFC018081992787FD909582179307C6
:1003B00064F4809165018F5F8093650183E090E034
:1003C00090936B0180936A014BC0809165018431E9
:1003D00060F4809164018F5F8093640182E090E01B
:1003E00090936B0180936A013BC0809165018431D9
:1003F00038F084E090E090936B0180936A0130C004
:1004000080E290E0FC018081882F90E08170992744
:10041000009739F485E090E090936B0180936A0136
:100420001FC084E090E090936B0180936A0118C034
:1004300080E290E0FC018081882F90E08170992714
:10044000009739F485E090E090936B0180936A0106
:1004500007C081E090E090936B0180936A010000F7
:1004600080916A0190916B0182309105B9F08330DF
:10047000910530F4009789F18130910541F030C049
:100480008330910521F18430910549F129C0109202
:100490006301109264011092650122C08091640191
:1004A000882F90E0880F991F880F991F8C5F9E4FAF
:1004B000FC0180819181A281B381BC01CD010E94A8
:1004C0007302809163018F5F8093630109C060E0D4
:1004D00070E0CB010E94730203C0000001C0000065
:1004E000DF91CF9108950F931F93CF93DF9300D0A7
:1004F00000D0CDB7DEB769837A838B839C838091EC
:10050000660190916701A0916801B09169019C0119
:10051000AD0169817A818B819C810E943703882398
:1005200009F477C020E030E0A90169817A818B81EC
:100530009C810E943703882351F481E990E021E9EE
:1005400030E0F90120812870FC01208309C081E995
:1005500090E021E930E0F90120812360FC01208353
:1005600028E539E344E75FE369817A818B819C81E7
:100570000E943703882344F488E990E02FEF3FEF8F
:10058000FC013183208334C020E034E244EF56E4A0
:1005900069817A818B819C810E944904181634F408
:1005A00088E990E0FC011182108222C008E910E085
:1005B00020E030E040E053E469817A818B819C81C6
:1005C0000E944D04DC01CB019C01AD0160E074E2AE
:1005D00084EF9AE40E943B03DC01CB01BC01CD0116
:1005E0000E94A303DC01CB010197F8019183808372
:1005F00084E990E0FC011182108289819A81AB81AB
:10060000BC818093660190936701A0936801B093C9
:1006100069010F900F900F900F90DF91CF911F9174
:100620000F910895CF93DF93CDB7DEB780E990E0C7
:1006300020E4FC01208381E990E02BE0FC01208391
:1006400060E070E0CB010E947302DF91CF910895CA
:10065000CF93DF93CDB7DEB780E990E0FC01108245
:1006600081E990E0FC011082DF91CF9108959CD048
:1006700008F481E008950CD0D2C0CAD040F0C1D0B7
:1006800030F021F45F3F19F0B3C05111FCC0B6C087
:10069000D7D098F39923C9F35523B1F3951B550B84
:1006A000BB27AA2762177307840738F09F5F5F4F45
:1006B000220F331F441FAA1FA9F333D00E2E3AF086
:1006C000E0E830D091505040E695001CCAF729D0A0
:1006D000FE2F27D0660F771F881FBB1F26173707EF
:1006E0004807AB07B0E809F0BB0B802DBF01FF271F
:1006F00093585F4F2AF09E3F510568F079C0C3C000
:100700005F3FECF3983EDCF3869577956795B79558
:10071000F7959F5FC9F7880F911D9695879597F973
:100720000895E1E0660F771F881FBB1F62177307EC
:100730008407BA0720F0621B730B840BBA0BEE1F01
:1007400088F7E095089504D06894B1119CC008958D
:100750007FD088F09F5790F0B92F9927B751A0F01C
:10076000D1F0660F771F881F991F1AF0BA95C9F745
:1007700012C0B13081F086D0B1E0089583C0672FF8
:10078000782F8827B85F39F0B93FCCF386957795F5
:100790006795B395D9F73EF49095809570956195DE
:1007A0007F4F8F4F9F4F0895990F0008550FAA0B49
:1007B000E0E8FEEF16161706E807F907C0F0121674
:1007C0001306E407F50798F0621B730B840B950B77
:1007D00039F40A2661F0232B242B252B21F40895CC
:1007E0000A2609F4A140A6958FEF811D811D089569
:1007F00097F99F6780E870E060E008959FEF80ECD4
:10080000089500240A941616170618060906089576
:1008100000240A9412161306140605060895092EDC
:100820000394000C11F4882352F0BB0F40F4BF2B4B
:1008300011F460FF04C06F5F7F4F8F4F9F4F08958B
:1008400057FD9058440F551F59F05F3F71F0479581
:10085000880F97FB991F61F09F3F79F08795089566
:10086000121613061406551FF2CF4695F1DF08C085
:10087000161617061806991FF1CF869571056105A2
:1008800008940895E894BB2766277727CB0197F94A
:1008900008958ADF08F48FEF08950BD0C0CFB1DF41
:1008A00028F0B6DF18F0952309F0A2CFA7CF1124C6
:1008B000EACFC6DFA0F3959FD1F3950F50E0551F07
:1008C000629FF001729FBB27F00DB11D639FAA27A5
:1008D000F00DB11DAA1F649F6627B00DA11D661FF4
:1008E000829F2227B00DA11D621F739FB00DA11D15
:1008F000621F839FA00D611D221F749F3327A00DCF
:10090000611D231F849F600D211D822F762F6A2F6A
:1009100011249F5750408AF0E1F088234AF0EE0FEF
:10092000FF1FBB1F661F771F881F91505040A9F7FC
:100930009E3F510570F05CCFA6CF5F3FECF3983E31
:10094000DCF3869577956795B795F795E7959F5F63
:10095000C1F7FE2B880F911D9695879597F90895FD
:04096000F894FFCF39
:100964000100000000800945008009450080094518
:100974008593D944142A2345008009458593D94495
:10098400142A23450080094514AA4D4514AA4D454F
:1009940014AA4D45AE235A45666A01458593D94448
:1009A400142A234500800945000000003232322514
:0E09B4000D32250D32323232250D32250D3234
:00000001FF
