:100000000C9446000C9465000C9465000C946500FB
:100010000C9465000C9465000C9465000C946500CC
:100020000C9465000C9465000C9465000C946500BC
:100030000C9465000C9492000C9465000C9465007F
:100040000C9465000C9465000C9465000C9465009C
:100050000C9465000C9465000C9465000C9465008C
:100060000C9465000C9465000C9465000C9465007C
:100070000C9465000C9465000C9465000C9465006C
:100080000C9465000C9465000C94650011241FBE4F
:10009000CFEFD0E4DEBFCDBF11E0A0E0B1E0E2EFF2
:1000A000F3E000E00BBF02C007900D92A430B1074F
:1000B000D9F711E0A4E0B1E001C01D92AB30B10767
:1000C000E1F70E94DC010C94F7010C9400008BE036
:1000D000809381008DE790E0909389008093880061
:1000E00082E080936F0010928500109284008091CE
:1000F000000190910101A0910201B0910301809350
:10010000040190930501A0930601B09307018FB7F6
:1001100080688FBF089510928100089581E08093D8
:10012000080108951F920F920FB60F9211240BB67B
:100130000F922F933F934F935F936F937F938F9380
:100140009F93AF93BF93EF93FF938091040190919E
:100150000501A0910601B09107010197A109B1091C
:100160008093040190930501A0930601B0930701C9
:10017000892B8A2B8B2B91F40E948E008091000199
:1001800090910101A0910201B091030180930401BB
:1001900090930501A0930601B0930701FF91EF91A1
:1001A000BF91AF919F918F917F916F915F914F918F
:1001B0003F912F910F900BBE0F900FBE0F901F908D
:1001C0001895609300017093010180930201909350
:1001D00003016093040170930501809306019093DD
:1001E000070108958091090190910A0182309105DB
:1001F00009F44BC028F4009769F0019791F0B3C05F
:100200008430910509F44FC008F446C0059709F4FD
:100210008DC0A9C081E090E090930A01809309010C
:10022000A2C080B190E08095909583709927019746
:1002300039F482E090E090930A018093090193C021
:1002400080B190E08095909583709927029739F45A
:1002500083E090E090930A018093090184C080B10B
:1002600090E08095909583709927039739F485E005
:1002700090E090930A018093090175C081E090E0BD
:1002800090930A01809309016EC084E090E09093FE
:100290000A018093090167C084E090E090930A010D
:1002A0008093090160C080B190E080959095837043
:1002B0009927019739F483E090E090930A018093A5
:1002C000090151C080B190E0809590958370992785
:1002D000029739F482E090E090930A01809309013B
:1002E00042C080B190E080959095837099270397E4
:1002F00039F485E090E090930A018093090133C0BE
:1003000080B190E08095909583709927892B39F47E
:1003100084E090E090930A018093090124C081E079
:1003200090E090930A01809309011DC080B190E094
:100330008095909583709927019741F080B190E066
:100340008095909583709927029739F485E090E025
:1003500090930A018093090106C081E090E0909398
:100360000A01809309018091090190910A0182306C
:10037000910569F018F4892B39F0089583309105BF
:1003800081F00597B9F0089587E085B9089585B1A2
:10039000893018F089E085B9089585B18F5F85B9F6
:1003A000089585B1811102C015B8089585B18150B5
:1003B00085B9089515B8089511B88FEF82B984B939
:1003C00087E085B96AE070E080E090E00E94E1009B
:1003D0000E94670010920A01109209010E94F20027
:1003E000809108018823E1F310920801F7CFF89477
:0203F000FFCF3D
:0403F2000100000006
:00000001FF
