:100000000C9446000C9465000C9465000C946500FB
:100010000C9465000C9465000C9465000C946500CC
:100020000C9465000C9465000C9465000C946500BC
:100030000C9465000C94B2000C9465000C9465005F
:100040000C9465000C9465000C9465000C9465009C
:100050000C9465000C9465000C9465000C9465008C
:100060000C9465000C9465000C9465000C9465007C
:100070000C9465000C9465000C9465000C9465006C
:100080000C9465000C9465000C94650011241FBE4F
:10009000CFEFD0E4DEBFCDBF11E0A0E0B1E0EAE1F8
:1000A000FBE000E00BBF02C007900D92AA32B1073F
:1000B000D9F711E0AAE2B1E001C01D92AF33B10758
:1000C000E1F70E94D6030C948B050C940000CF93AB
:1000D000DF93CDB7DEB781E890E02BE0FC01208311
:1000E00088E890E02DE730E0FC01318320838FE643
:1000F00090E022E0FC01208384E890E0FC01118282
:1001000010828091000190910101A0910201B091B3
:10011000030180932B0190932C01A0932D01B093A8
:100120002E018FE590E02FE530E0F9012081206875
:10013000FC012083DF91CF910895CF93DF93CDB75A
:10014000DEB781E890E0FC011082DF91CF91089545
:10015000CF93DF93CDB7DEB781E080932A01DF91A3
:10016000CF9108951F920F9200905F000F9211247B
:1001700000905B000F922F933F934F935F936F9389
:100180007F938F939F93AF93BF93EF93FF93CF93FF
:10019000DF93CDB7DEB780912B0190912C01A09118
:1001A0002D01B0912E010197A109B10980932B0176
:1001B00090932C01A0932D01B0932E0180912B01DF
:1001C00090912C01A0912D01B0912E010097A105D5
:1001D000B10591F40E94A800809100019091010165
:1001E000A0910201B091030180932B0190932C0107
:1001F000A0932D01B0932E01DF91CF91FF91EF914C
:10020000BF91AF919F918F917F916F915F914F912E
:100210003F912F910F9000925B000F9000925F0032
:100220000F901F901895CF93DF9300D000D0CDB7DB
:10023000DEB769837A838B839C8389819A81AB81C2
:10024000BC818093000190930101A0930201B093BF
:1002500003018091000190910101A0910201B091F0
:10026000030180932B0190932C01A0932D01B09357
:100270002E010F900F900F900F90DF91CF91089566
:100280000F931F93CF93DF9300D000D0CDB7DEB78D
:1002900069837A838B839C838091330190913401AD
:1002A000A0913501B09136019C01AD0169817A813F
:1002B0008B819C810E941204882309F477C020E07E
:1002C00030E0A90169817A818B819C810E941204AE
:1002D000882351F481E990E021E930E0F90120819F
:1002E0002870FC01208309C081E990E021E930E019
:1002F000F90120812360FC01208328E539E344E7EC
:100300005FE369817A818B819C810E94120488233A
:1003100044F488E990E02FEF3FEFFC013183208324
:1003200034C020E034E244EF56E469817A818B8165
:100330009C810E942405181634F488E990E0FC01A1
:100340001182108222C008E910E020E030E040E095
:1003500053E469817A818B819C810E942805DC01AC
:10036000CB019C01AD0160E074E284EF9AE40E944D
:100370001604DC01CB01BC01CD010E947E04DC012E
:10038000CB010197F8019183808384E990E0FC011F
:100390001182108289819A81AB81BC818093330163
:1003A00090933401A0933501B09336010F900F90D4
:1003B0000F900F90DF91CF911F910F910895CF93E0
:1003C000DF93CDB7DEB780E990E020E4FC01208325
:1003D00081E990E02BE0FC01208360E070E0CB013C
:1003E0000E944001DF91CF910895CF93DF93CDB765
:1003F000DEB780E990E0FC01108281E990E0FC0129
:100400001082DF91CF910895CF93DF93CDB7DEB700
:1004100080913D0190913E018230910509F1833038
:10042000910530F4009771F08130910591F032C060
:100430008430910519F184309105C8F0853091051B
:1004400021F128C081E090E090933E0180933D012E
:1004500021C082E090E090933E0180933D011AC05C
:1004600083E090E090933E0180933D0113C084E0CF
:1004700090E090933E0180933D010CC085E090E0B8
:1004800090933E0180933D0105C010923E01109271
:100490003D01000080913D0190913E018230910527
:1004A000D9F08330910530F4009771F081309105D7
:1004B00079F022C084309105B9F08430910580F044
:1004C00085309105A9F018C081E08093300114C0F7
:1004D00082E08093300110C084E0809330010CC032
:1004E00081E08093300108C082E08093300104C035
:1004F00084E0809330010000DF91CF910895CF9385
:10050000DF93CDB7DEB7809137019091380182300B
:10051000910509F18330910530F4009771F0813035
:10052000910591F032C08430910519F18430910524
:10053000C8F08530910521F128C081E090E09093CA
:1005400038018093370121C082E090E09093380118
:10055000809337011AC083E090E090933801809334
:10056000370113C084E090E0909338018093370105
:100570000CC085E090E0909338018093370105C06E
:10058000109238011092370100008091370190914C
:10059000380182309105D9F08330910530F400970D
:1005A00071F08130910579F01FC084309105B1F070
:1005B0008430910580F08530910599F015C088E070
:1005C0008093310111C088E0809331010DC088E033
:1005D0008093310109C01092310106C0109231019F
:1005E00003C0109231010000DF91CF910895CF93A5
:1005F000DF93CDB7DEB78091390190913A01009732
:1006000021F08130910541F017C081E090E0909396
:100610003A018093390110C081E090E090933A0153
:100620008093390185E290E03091300120913101D1
:10063000232BFC0120830000DF91CF910895CF93FD
:10064000DF93CDB7DEB780913B0190913C018130C3
:10065000910589F08130910538F08230910529F1BA
:1006600083309105E1F142C081E090E090933C013C
:1006700080933B013BC080E290E0FC018081882FA9
:1006800090E08095909587709927009739F082E0E7
:1006900090E090933C0180933B0128C081E090E082
:1006A00090933C0180933B0121C080E290E0FC01EB
:1006B0008081882F90E0809590958770992700978A
:1006C00039F082E090E090933A01809339010EC0B6
:1006D00083E090E090933A018093390107C081E074
:1006E00090E090933C0180933B01000080913B019E
:1006F00090913C018130910561F08130910508F4C1
:1007000051C08230910559F08330910509F444C0FD
:100710004AC060E070E0CB010E94400144C080E22A
:1007200090E0FC018081882F90E080959095877003
:1007300099278130910539F464E17AE283E295E406
:100740000E94400130C080E290E0FC018081882F4F
:1007500090E080959095877099278230910539F4C3
:100760006FE87AE287E395E40E9440011CC080E2D2
:1007700090E0FC018081882F90E0809590958770B3
:1007800099278430910539F464E17AEA8DE495E49F
:100790000E94400108C007C060E070E0CB010E94E9
:1007A000400101C00000DF91CF910895CF93DF9306
:1007B000CDB7DEB781E290E0FC01108282E290E0EA
:1007C0002FEFFC01208384E290E02FEFFC012083D7
:1007D00085E290E0FC01108268E270E080E090E049
:1007E0000E9413010E9467000E94DF0110923E01E7
:1007F00010923D01109238011092370110923A0187
:10080000109239010E9404020E947F020E941F037D
:100810000E94F702000080912A018823E1F31092E0
:100820002A01F0CF9CD008F481E008950CD0D2C00A
:10083000CAD040F0C1D030F021F45F3F19F0B3C00E
:100840005111FCC0B6C0D7D098F39923C9F35523F2
:10085000B1F3951B550BBB27AA27621773078407B3
:1008600038F09F5F5F4F220F331F441FAA1FA9F369
:1008700033D00E2E3AF0E0E830D091505040E6955B
:10088000001CCAF729D0FE2F27D0660F771F881FBC
:10089000BB1F261737074807AB07B0E809F0BB0BAB
:1008A000802DBF01FF2793585F4F2AF09E3F5105CF
:1008B00068F079C0C3C05F3FECF3983EDCF38695E7
:1008C00077956795B795F7959F5FC9F7880F911D45
:1008D0009695879597F90895E1E0660F771F881F31
:1008E000BB1F621773078407BA0720F0621B730BE4
:1008F000840BBA0BEE1F88F7E095089504D0689436
:10090000B1119CC008957FD088F09F5790F0B92F07
:100910009927B751A0F0D1F0660F771F881F991F54
:100920001AF0BA95C9F712C0B13081F086D0B1E0A3
:10093000089583C0672F782F8827B85F39F0B93FB3
:10094000CCF3869577956795B395D9F73EF4909556
:100950008095709561957F4F8F4F9F4F0895990FA8
:100960000008550FAA0BE0E8FEEF16161706E80779
:10097000F907C0F012161306E407F50798F0621B9A
:10098000730B840B950B39F40A2661F0232B242B6F
:10099000252B21F408950A2609F4A140A6958FEF8E
:1009A000811D811D089597F99F6780E870E060E0E0
:1009B00008959FEF80EC089500240A9416161706F8
:1009C00018060906089500240A9412161306140640
:1009D00005060895092E0394000C11F4882352F0A3
:1009E000BB0F40F4BF2B11F460FF04C06F5F7F4F5B
:1009F0008F4F9F4F089557FD9058440F551F59F042
:100A00005F3F71F04795880F97FB991F61F09F3FFB
:100A100079F087950895121613061406551FF2CF24
:100A20004695F1DF08C0161617061806991FF1CF74
:100A300086957105610508940895E894BB2766279B
:100A40007727CB0197F908958ADF08F48FEF08958F
:100A50000BD0C0CFB1DF28F0B6DF18F0952309F036
:100A6000A2CFA7CF1124EACFC6DFA0F3959FD1F381
:100A7000950F50E0551F629FF001729FBB27F00D4C
:100A8000B11D639FAA27F00DB11DAA1F649F6627A1
:100A9000B00DA11D661F829F2227B00DA11D621FF0
:100AA000739FB00DA11D621F839FA00D611D221FAA
:100AB000749F3327A00D611D231F849F600D211D8E
:100AC000822F762F6A2F11249F5750408AF0E1F031
:100AD00088234AF0EE0FFF1FBB1F661F771F881F7A
:100AE00091505040A9F79E3F510570F05CCFA6CFC2
:100AF0005F3FECF3983EDCF3869577956795B79565
:100B0000F795E7959F5FC1F7FE2B880F911D96958E
:0A0B1000879597F90895F894FFCF38
:100B1A0001000000142A23458F2A374514AA4D459F
:100B2A00AE235A4500007545008089450A179A4543
:0A0B3A000072A3450000000009004E
:00000001FF
