:100000000C944D000C946C000C946C000C946C00DF
:100010000C946C000C946C000C946C000C946C00B0
:100020000C946C000C946C000C946C000C946C00A0
:100030000C946C000C9499000C946C000C946C0063
:100040000C946C000C946C000C946C000C946C0080
:100050000C946C000C946C000C946C000C946C0070
:100060000C946C000C946C000C946C000C946C0060
:100070000C946C000C946C000C946C000C946C0050
:100080000C946C000C946C000C946C0005010D0138
:100090001D012D013D014D015D0111241FBECFEF5A
:1000A000D0E4DEBFCDBF11E0A0E0B1E0ECE5F3E0CD
:1000B00000E00BBF02C007900D92A430B107D9F742
:1000C00011E0A4E0B1E001C01D92AB30B107E1F74F
:1000D0000E9489010C94AC010C9400008BE0809389
:1000E00081008DE790E0909389008093880082E002
:1000F00080936F001092850010928400809100011F
:1001000090910101A0910201B0910301809304013B
:1001100090930501A0930601B09307018FB7806803
:100120008FBF089510928100089581E080930801A7
:1001300008951F920F920FB60F9211240BB60F92D3
:100140002F933F934F935F936F937F938F939F93DF
:10015000AF93BF93EF93FF938091040190910501BA
:10016000A0910601B09107010197A109B1098093FF
:10017000040190930501A0930601B0930701892B18
:100180008A2B8B2B91F40E94950080910001909115
:100190000101A0910201B0910301809304019093A9
:1001A0000501A0930601B0930701FF91EF91BF9164
:1001B000AF919F918F917F916F915F914F913F91FF
:1001C0002F910F900BBE0F900FBE0F901F901895A0
:1001D00060930001709301018093020190930301E9
:1001E00060930401709305018093060190930701C9
:1001F0000895E0910901F0910A01E730F10508F056
:100200006BC0EA5BFF4F0C94A30115B881E090E04E
:1002100090930A01809309015FC0009907C085E0AF
:1002200090E090930A018093090156C082E090E02B
:1002300090930A01809309014FC0009907C085E09F
:1002400090E090930A018093090146C083E090E01A
:1002500090930A01809309013FC0009907C085E08F
:1002600090E090930A018093090136C084E090E009
:1002700090930A01809309012FC0009907C085E07F
:1002800090E090930A018093090126C081E090E0FC
:1002900090930A01809309011FC0009907C085E06F
:1002A00090E090930A018093090116C086E090E0E7
:1002B00090930A01809309010FC0009907C081E063
:1002C00090E090930A018093090106C086E090E0D7
:1002D00090930A01809309018091090190910A018C
:1002E0008230910569F018F4019739F00895833050
:1002F000910549F0049751F0089581E085B908957A
:1003000082E085B9089584E085B9089582E085B9D1
:10031000089511B88FEF82B984B915B862E370E01F
:1003200080E090E00E94E8000E946E0010920A01B6
:10033000109209010E94F900809108018823E1F3DD
:1003400010920801F7CFEE0FFF1F0024001C0BBE18
:0C0350000790F691E02D0994F894FFCF7F
:04035C00010000009C
:00000001FF
