:100000000C948B000C94AA000C94AA000C94AA00E7
:100010000C94AA000C94AA000C94AA000C94AA00B8
:100020000C94AA000C94AA000C94AA000C94AA00A8
:100030000C94AA000C941F020C94AA000C94AA0021
:100040000C94AA000C94AA000C94AA000C94AA0088
:100050000C94AA000C94AA000C94AA000C94AA0078
:100060000C94AA000C94AA000C94AA000C94AA0068
:100070000C94AA000C94AA000C94AA000C94AA0058
:100080000C94AA000C94AA000C94AA00DE0210039F
:1000900010031003100310031003100310031003C8
:1000A00010031003100310031003100310031003B8
:1000B00010031003100310031003100310031003A8
:1000C0001003100310031003100310031003100398
:1000D00010030D031003100310031003100310038B
:1000E0000803100310031003100310030B03E102B5
:1000F000E402E702EA02ED02F002F302F602F9027C
:100100001003100310031003100310031003FC026C
:10011000FF020203050311241FBECFEFD0E4DEBFB0
:10012000CDBF11E0A0E0B1E0E0E8F6E000E00BBFF9
:1001300002C007900D92A430B107D9F711E0A4E0F6
:10014000B1E001C01D92AD30B107E1F70E94CC02D1
:100150000C943E030C94000040E050E00CC0000002
:100160002F5F3F4F02C020E030E0273063E03607CA
:10017000B4F34F5F5F4F48175907ACF308955E988B
:1001800088B95F9A00005F9882E090E00E94AC001E
:10019000089581E00E94BF000895813120F48158C4
:1001A0000E94BF00089581550E94BF00089584E613
:1001B00090E00E94AC0088E30E94BF0086E00E94AD
:1001C000BF008FE00E94BF0081E00E94BF008AE074
:1001D00090E00E94AC0008955E9A88B95F9A000092
:1001E0005F9881E090E00E94AC000895EF92FF924A
:1001F0000F931F93CF93DF93182FEB010E94C90039
:100200000EC001E0010F812F0E94CD007E018FEF13
:10021000E81AF80A88810E94EC00102FE701888113
:100220008111EFCFDF91CF911F910F91FF90EF9050
:100230000895442349F021E030E002C0220F331F2B
:100240006A95E2F7822B089521E030E002C0220F88
:10025000331F6A95E2F720958223089521E030E06C
:1002600002C0220F331F6A95E2F78223089540E00F
:1002700064E08FEF0E94190188B9000086B160E048
:1002800080950E942E01811180C086B161E0809529
:100290000E942E0181117BC086B162E080950E9490
:1002A0002E01811176C086B163E080950E942E01F7
:1002B000811171C040E065E08FEF0E94190188B99B
:1002C000000086B160E080950E942E01811165C01A
:1002D00086B161E080950E942E01811160C086B1D7
:1002E00062E080950E942E0181115BC086B163E0BF
:1002F00080950E942E01811156C040E066E08FEF8C
:100300000E94190188B9000086B160E080950E94C2
:100310002E0181114AC086B161E080950E942E01B4
:10032000811145C086B162E080950E942E01811145
:1003300040C086B163E080950E942E0181113BC0D0
:1003400040E067E08FEF0E94190188B9000086B194
:1003500060E080950E942E0181112FC086B161E07E
:1003600080950E942E0181112AC086B162E080959D
:100370000E942E01811125C086B163E080950E9404
:100380002E018823F9F084E4089581E3089584E33D
:10039000089587E308958AE2089582E3089585E346
:1003A000089588E3089580E3089583E3089586E33C
:1003B000089589E3089583E2089581E4089582E42D
:1003C000089583E408956093000170930101809380
:1003D00002019093030160930601709307018093DB
:1003E00008019093090108958BE0809381008DE7C7
:1003F00090E0909389008093880082E080936F0062
:10040000109285001092840080910001909101016A
:10041000A0910201B091030180930601909307011E
:10042000A0930801B09309018FB780688FBF08952A
:1004300010928100089581E080930A0108951F922F
:100440000F920FB60F9211240BB60F922F933F937A
:100450004F935F936F937F938F939F93AF93BF93CC
:10046000EF93FF938091060190910701A0910801FD
:10047000B09109010197A109B109809306019093F8
:100480000701A0930801B0930901892B8A2B8B2BBC
:1004900091F40E941B028091000190910101A091B2
:1004A0000201B09103018093060190930701A0938C
:1004B0000801B0930901FF91EF91BF91AF919F9116
:1004C0008F917F916F915F914F913F912F910F90FD
:1004D0000BBE0F900FBE0F901F9018950F931F9398
:1004E000CF93DF93B62FA72FF82FE92F022F132FCB
:1004F000D42FC52F04C0062F172FD82FC92F6B2F2D
:100500007A2F8F2F9E2F202F312F4D2F5C2F0E945F
:100510001303B02FA12FFD2FEC2F6115710581055D
:10052000910549F7602F712F8D2F9C2FDF91CF916F
:100530001F910F910895CF93DF93EC01009721F065
:100540008130910579F009C0809104018F3179F0F3
:100550008F3159F4C0E0D0E00AC010920401C0E02D
:10056000D0E005C0C0E0D0E002C0C1E0D0E02097FC
:1005700021F0C130D10531F00BC00E9437018093CA
:10058000040106C0809104018093050110920401CA
:10059000CE01DF91CF9108958FEF84B915B880EF28
:1005A00087B98FE088B90E94370190E085349105C2
:1005B000B8F5FC01EA5BFF4F0C9435038FE185B978
:1005C000F2CF81E085B9EFCF82E085B9ECCF83E04F
:1005D00085B9E9CF84E085B9E6CF85E085B9E3CF79
:1005E00086E085B9E0CF87E085B9DDCF88E085B9C1
:1005F000DACF89E085B9D7CF8AE085B9D4CF8BE04F
:1006000085B9D1CF8CE085B9CECF8DE085B9CBCF80
:100610008EE085B9C8CF15B8C6CF8FE085B9C3CFF6
:100620008BE185B9C0CFA1E21A2EAA1BBB1BFD012D
:100630000DC0AA1FBB1FEE1FFF1FA217B307E407C1
:10064000F50720F0A21BB30BE40BF50B661F771F19
:10065000881F991F1A9469F76095709580959095F9
:100660009B01AC01BD01CF010895EE0FFF1F0024D7
:10067000001C0BBE0790F691E02D0994F894FFCF73
:040680000100000075
:00000001FF
