:100000000C9446000C9465000C9465000C946500FB
:100010000C9465000C9465000C9465000C946500CC
:100020000C9465000C9465000C9465000C946500BC
:100030000C9465000C9485040C9465000C94650088
:100040000C9465000C9465000C9465000C9465009C
:100050000C9465000C9465000C9465000C9465008C
:100060000C9465000C9465000C9465000C9465007C
:100070000C9465000C9465000C9465000C9465006C
:100080000C9465000C9465000C94650011241FBE4F
:10009000CFEFD0E4DEBFCDBF11E0A0E0B1E0ECEEE9
:1000A000FFE000E00BBF02C007900D92A031B10746
:1000B000D9F711E0A0E1B1E001C01D92A033B10772
:1000C000E1F70E9465050C94F4070C940000CF93AF
:1000D000DF93CDB7DEB760970FB6F894DEBF0FBEE3
:1000E000CDBF6D837E838F83988729873A874B871F
:1000F0005C878D819E81AF81B88529853A854B8546
:100100005C85BC01CD010E94A506DC01CB01898381
:100110009A83AB83BC8389819A81AB81BC81009730
:10012000A105B10529F489859A85AB85BC8511C0E7
:1001300089859A85AB85BC858D839E83AF83B8877F
:1001400089819A81AB81BC8189879A87AB87BC877B
:10015000D0CFBC01CD0160960FB6F894DEBF0FBEC4
:10016000CDBFDF91CF910895CF93DF9300D01F9241
:10017000CDB7DEB789836A834B838B81882379F07F
:100180008A81282F30E081E090E0022E02C0880FA3
:10019000991F0A94E2F7982F8981892B0FC08A81D1
:1001A000282F30E081E090E0022E02C0880F991FD6
:1001B0000A94E2F7982F9095898189230F900F90E8
:1001C0000F90DF91CF910895CF93DF9300D0CDB7FB
:1001D000DEB789836A838A81282F30E081E090E04E
:1001E000022E02C0880F991F0A94E2F7982F898186
:1001F00089230F900F90DF91CF910895CF93DF93D4
:10020000CDB7DEB781E00E942301DF91CF91089541
:10021000CF93DF93CDB7DEB784E690E00E94C301B1
:1002200088E30E94230186E00E9423018FE00E9460
:10023000230181E00E9423018AE090E00E94C30133
:10024000DF91CF910895CF93DF931F92CDB7DEB7A3
:1002500089838BE290E02BE230E0F90120812F7B53
:10026000FC01208388E290E02981FC0120838BE25D
:1002700090E02BE230E0F90120812068FC0120832E
:1002800000008BE290E02BE230E0F90120812F7733
:10029000FC01208382E090E00E94C3010F90DF9177
:1002A000CF910895CF93DF931F92CDB7DEB78983A7
:1002B0008BE290E02BE230E0F90120812064FC0128
:1002C000208388E290E02981FC0120838BE290E08A
:1002D0002BE230E0F90120812068FC01208300003E
:1002E0008BE290E02BE230E0F90120812F77FC01D6
:1002F000208381E090E00E94C3010F90DF91CF91B5
:100300000895CF93DF9300D000D0CDB7DEB78A83B6
:100310007C836B830E94FE008A81898311C089815E
:1003200091E0980F99830E94AD018B819C819C0183
:100330002F5F3F4F3C832B83FC0180810E94520141
:100340008B819C81FC018081882349F70F900F905D
:100350000F900F90DF91CF910895CF93DF931F926D
:10036000CDB7DEB789838981813128F489818158AD
:100370000E94230104C0898181550E9423010F90AE
:10038000DF91CF910895CF93DF9300D000D000D0BC
:10039000CDB7DEB79E838D831A82198214C01C826A
:1003A0001B8206C000008B819C8101969C838B83FD
:1003B0008B819C81873023E09207A4F389819A8105
:1003C00001969A83898329813A818D819E8128179C
:1003D00039072CF326960FB6F894DEBF0FBECDBFBB
:1003E000DF91CF9108950F931F93CF93DF93CDB7F4
:1003F000DEB702E210E040E064E08FEF0E94B4005C
:10040000F8018083000080E290E0FC01808180950B
:1004100060E00E94E400882311F081E3D3C080E211
:1004200090E0FC018081809561E00E94E4008823D7
:1004300011F084E3C7C080E290E0FC0180818095E8
:1004400062E00E94E400882311F087E3BBC080E2F1
:1004500090E0FC018081809563E00E94E4008823A5
:1004600011F08AE2AFC002E210E040E065E08FEFF9
:100470000E94B400F8018083000080E290E0FC015B
:100480008081809560E00E94E400882311F082E37F
:1004900099C080E290E0FC018081809561E00E943B
:1004A000E400882311F085E38DC080E290E0FC0138
:1004B0008081809562E00E94E400882311F088E347
:1004C00081C080E290E0FC018081809563E00E9421
:1004D000E400882311F080E375C002E210E040E000
:1004E00066E08FEF0E94B400F8018083000080E294
:1004F00090E0FC018081809560E00E94E400882308
:1005000011F083E35FC080E290E0FC018081809580
:1005100061E00E94E400882311F086E353C080E28A
:1005200090E0FC018081809562E00E94E4008823D5
:1005300011F089E347C080E290E0FC018081809562
:1005400063E00E94E400882311F083E23BC002E2F2
:1005500010E040E067E08FEF0E94B400F801808374
:10056000000080E290E0FC018081809560E00E94C4
:10057000E400882311F081E425C080E290E0FC01D2
:100580008081809561E00E94E400882311F082E47C
:1005900019C080E290E0FC018081809562E00E94B9
:1005A000E400882311F083E40DC080E290E0FC01B8
:1005B0008081809563E00E94E400882311F084E448
:1005C00001C080E0DF91CF911F910F910895CF93EB
:1005D000DF9300D01F92CDB7DEB78B8386E090E02B
:1005E0000E94C7069A8389838B81882F90E00E949E
:1005F000C7069C0189819A81FC013183208389810E
:100600009A81FC01128289819A81FC01138289817D
:100610009A81FC01148289819A812B81FC012583B6
:1006200089819A810F900F900F90DF91CF9108955B
:10063000CF93DF9300D0CDB7DEB79A8389838981CA
:100640009A81FC01948181E0992309F080E00F9068
:100650000F90DF91CF910895CF93DF9300D0CDB766
:10066000DEB79A83898389819A81FC0124818981FB
:100670009A81FC01958181E0291709F080E00F90B3
:100680000F90DF91CF910895CF93DF9300D0CDB736
:10069000DEB79A83898389819A81FC0112828981DC
:1006A0009A81FC01138289819A81FC0114820F9046
:1006B0000F90DF91CF910895CF93DF9300D000D0BA
:1006C000CDB7DEB79A8389836B8389819A81FC01D8
:1006D000248189819A81FC0185812817C0F589814F
:1006E0009A81FC012081318189819A81FC01838179
:1006F000882F90E0820F931F2B81FC01208389813A
:100700009A81FC01838121E0280F89819A81FC0173
:10071000238389819A81FC01238189819A81FC014B
:100720009581822F692F0E949906892F282F898110
:100730009A81FC01238389819A81FC01848121E0D3
:10074000280F89819A81FC01248380E001C081E027
:100750000F900F900F900F90DF91CF910895CF934E
:10076000DF9300D000D0CDB7DEB79B838A838A8128
:100770009B81FC018481882309F447C08A819B8185
:10078000FC01208131818A819B81FC018281882F3B
:1007900090E0820F931FFC01808189838A819B8175
:1007A000FC01208131818A819B81FC018281882F1B
:1007B00090E0820F931FFC0110828A819B81FC01D3
:1007C000828121E0280F8A819B81FC0122838A811A
:1007D0009B81FC0122818A819B81FC019581822F72
:1007E000692F0E949906892F282F8A819B81FC01FD
:1007F00022838A819B81FC0184812FEF280F8A81CB
:100800009B81FC012483898101C080E00F900F90BF
:100810000F900F90DF91CF910895CF93DF9300D089
:1008200000D0CDB7DEB769837A838B839C838981BF
:100830009A81AB81BC818093000190930101A093C8
:100840000201B09303018091000190910101A091F8
:100850000201B09103018093110190931201A093C2
:100860001301B09314010F900F900F900F90DF9130
:10087000CF910895CF93DF93CDB7DEB781E890E0B5
:100880002BE0FC01208388E890E02DE730E0FC01BC
:10089000318320838FE690E022E0FC01208384E80E
:1008A00090E0FC0111821082809100019091010181
:1008B000A0910201B0910301809311019093120164
:1008C000A0931301B09314018FE590E02FE530E081
:1008D000F90120812068FC012083DF91CF910895E8
:1008E000CF93DF93CDB7DEB781E890E0FC011082B3
:1008F000DF91CF910895CF93DF93CDB7DEB781E03D
:1009000080931001DF91CF9108951F920F92009074
:100910005F000F92112400905B000F922F933F9382
:100920004F935F936F937F938F939F93AF93BF93F7
:10093000EF93FF93CF93DF93CDB7DEB78091110193
:1009400090911201A0911301B09114010197A10996
:10095000B1098093110190931201A0931301B093F8
:1009600014018091110190911201A0911301B09195
:1009700014010097A105B10591F40E947B048091B8
:10098000000190910101A0910201B09103018093B7
:10099000110190931201A0931301B0931401DF9100
:1009A000CF91FF91EF91BF91AF919F918F917F91E7
:1009B0006F915F914F913F912F910F9000925B004B
:1009C0000F9000925F000F901F901895CF93DF93C8
:1009D00000D0CDB7DEB79A8389830E94F30180935C
:1009E000150189819A818130910581F082309105CC
:1009F00091F00097E1F49091150181E0992309F4B9
:100A000080E0882F90E09A83898314C082E090E090
:100A10009A8389830FC080911501882319F480E09F
:100A200090E002C082E090E09A83898303C01A823A
:100A30001982000089819A818130910531F08230DC
:100A4000910529F0009729F005C0000003C00000BF
:100A500001C0000089819A810F900F90DF91CF91A2
:100A60000895CF93DF9300D0CDB7DEB79A83898303
:100A700089819A81009721F08130910549F005C064
:100A800081E090E09A83898304C01A82198201C0B0
:100A9000000089819A81009781F08130910571F47D
:100AA00080911601813041F481E00E94AD01809176
:100AB00015010E94520102C001C0000089819A8183
:100AC0000F900F90DF91CF9108950F931F93CF93C5
:100AD000DF93CDB7DEB728970FB6F894DEBF0FBE11
:100AE000CDBF87E290E02FEFFC01208388E290E009
:100AF000FC0110828AE290E02FEFFC0120838BE260
:100B000090E0FC01108281E290E020EFFC01208364
:100B100082E290E02FE0FC0120830E94080182E045
:100B200090E098878F83109216018AE090E0A0E011
:100B3000B0E08093170190931801A0931901B0932E
:100B40001A018091170190911801A0911901B0919B
:100B50001A0180931B0190931C01A0931D01B09377
:100B60001E0186EE94E09093200180931F01109265
:100B700021018AE090E0A0E0B0E080932201909310
:100B80002301A0932401B09325018091220190912B
:100B90002301A0912401B091250180932601909317
:100BA0002701A0932801B093290181E395E0909358
:100BB0002B0180932A0185E090E0A0E0B0E08983DA
:100BC0009A83AB83BC836AE070E080E090E00E948F
:100BD0000D040E943A041E821D829BC08D819E815D
:100BE000880F991F8C5F9E4FFC0180819181FC01D1
:100BF00025813681478150858D819E81880F991F7F
:100C00008C5F9E4FFC0180819181FC0181819281EA
:100C1000A381B481281739074A075B07A9F58D819D
:100C20009E81880F991F8C5F9E4FFC01008111816E
:100C30008D819E81880F991F8C5F9E4FFC01808162
:100C40009181FC01218532858D819E81880F991FBC
:100C50008C5F9E4FFC0180819181FC0180819927EE
:100C600087FD9095F9010995F80180838D819E811A
:100C7000880F991F8C5F9E4FFC0180819181FC0140
:100C800015821682178210868D819E81880F991F8A
:100C90008C5F9E4FFC01608171818D819E81880FE8
:100CA000991F8C5F9E4FFC0180819181FC01258101
:100CB00036814781508589819A81AB81BC81820FC1
:100CC000931FA41FB51FFB0185839683A783B0875D
:100CD0008D819E81880F991F8C5F9E4FFC018081C2
:100CE0009181FC01218132814381548189819A81E2
:100CF000AB81BC81BC01CD010E946700DC01CB014E
:100D000089839A83AB83BC838D819E8101969E8368
:100D10008D832D813E818F8198852817390708F4AE
:100D20005DCF0000809110018823E1F31092100143
:100D300052CF991B79E004C0991F961708F0961BB3
:100D4000881F7A95C9F780950895A1E21A2EAA1BEB
:100D5000BB1BFD010DC0AA1FBB1FEE1FFF1FA2176B
:100D6000B307E407F50720F0A21BB30BE40BF50B68
:100D7000661F771F881F991F1A9469F760957095F1
:100D8000809590959B01AC01BD01CF010895CF9353
:100D9000DF938230910510F482E090E0E0912E0123
:100DA000F0912F0120E030E0C0E0D0E0309711F169
:100DB0004081518148175907C0F04817590761F41D
:100DC00082819381209719F09B838A832BC0909313
:100DD0002F0180932E0126C02115310519F04217ED
:100DE000530718F49A01BE01DF01EF010280F3817D
:100DF000E02DDCCF2115310509F1281B390B2430FA
:100E0000310590F412968D919C911397611571059F
:100E100021F0FB019383828304C090932F01809380
:100E20002E01FD01329644C0FD01E20FF31F8193B4
:100E30009193225031092D933C933AC020912C017B
:100E400030912D01232B41F420910B0130910C01A5
:100E500030932D0120932C012091090130910A013A
:100E60002115310541F42DB73EB740910D01509148
:100E70000E01241B350BE0912C01F0912D01E2179E
:100E8000F307A0F42E1B3F0B2817390778F0AC01AD
:100E90004E5F5F4F2417350748F04E0F5F1F50938A
:100EA0002D0140932C018193919302C0E0E0F0E08A
:100EB000CF01DF91CF9108950F931F93CF93DF93CD
:100EC000009709F48CC0FC013297138212820091C2
:100ED0002E0110912F010115110581F4208131811E
:100EE000820F931F20912C0130912D012817390773
:100EF00079F5F0932D01E0932C0171C0D80140E009
:100F000050E0AE17BF0750F412962D913C91139705
:100F1000AD012115310509F1D901F3CF9D01DA01A8
:100F20003383228360817181860F971F8217930715
:100F300069F4EC0128813981260F371F2E5F3F4F5E
:100F4000318320838A819B8193838283452B29F47B
:100F5000F0932F01E0932E0142C01396FC93EE9381
:100F60001297ED01499159919E01240F351FE21707
:100F7000F30771F480819181840F951F0296119679
:100F80009C938E938281938113969C938E93129758
:100F9000E0E0F0E0D80112968D919C9113970097B4
:100FA00019F0F8018C01F6CF8D919C9198012E5F7C
:100FB0003F4F820F931F20912C0130912D01281754
:100FC000390769F4309729F410922F0110922E01FD
:100FD00002C01382128210932D0100932C01DF9125
:0C0FE000CF911F910F910895F894FFCF5E
:100FEC00010000001601210120000030012000004A
:00000001FF
