:100000000C9446000C9465000C9465000C946500FB
:100010000C9465000C9465000C9465000C946500CC
:100020000C9465000C9465000C9465000C946500BC
:100030000C9465000C94FF010C9465000C94650011
:100040000C9465000C9465000C9465000C9465009C
:100050000C9465000C9465000C9465000C9465008C
:100060000C9465000C9465000C9465000C9465007C
:100070000C9465000C9465000C9465000C9465006C
:100080000C9465000C9465000C94650011241FBE4F
:10009000CFEFD0E4DEBFCDBF11E0A0E0B1E0E2E001
:1000A000F6E000E00BBF02C007900D92AE32B10740
:1000B000D9F711E0AEE2B1E001C01D92A235B1075F
:1000C000E1F70E946C020C94FF020C9400000F9365
:1000D0001F93CF93DF93B62FA72FF82FE92F022F6F
:1000E000132FD42FC52F04C0062F172FD82FC92F99
:1000F0006B2F7A2F8F2F9E2F202F312F4D2F5C2F7C
:100100000E94DD02B02FA12FFD2FEC2F611571058C
:100110008105910549F7602F712F8D2F9C2FDF915D
:10012000CF911F910F91089540E050E00CC0000066
:100130002F5F3F4F02C020E030E0273063E03607FA
:10014000B4F34F5F5F4F48175907ACF308955E98BB
:1001500088B95F9A00005F9882E090E00E94940066
:10016000089581E00E94A7000895813120F481580C
:100170000E94A700089581550E94A700089584E673
:1001800090E00E94940088E30E94A70086E00E940D
:10019000A7008FE00E94A70081E00E94A7008AE0EC
:1001A00090E00E94940008955E9A88B95F9A0000DA
:1001B0005F9881E090E00E9494000895EF92FF9292
:1001C0000F931F93CF93DF93182FEB010E94B10081
:1001D0000EC001E0010F812F0E94B5007E018FEF5C
:1001E000E81AF80A88810E94D400102FE70188815C
:1001F0008111EFCFDF91CF911F910F91FF90EF9081
:100200000895892B09F0BCC00E94B10080E10E94D2
:10021000B50080914E0190914F01A0915001B09195
:10022000510185339105A105B10508F08EC00196F5
:10023000A11DB11D80934E0190934F01A0935001D9
:10024000B093510180E190E090930201809301010D
:1002500038C0AC01421B530B9A0121503109409127
:100260004A0150914B0160914C0170914D01420F38
:10027000531F611D711D40934601509347016093C8
:10028000480170934901453251056105710520F01F
:1002900020E22093450106C0FA01ED5FFE4F208168
:1002A000209345010E94B500809145010E94D40031
:1002B0008091010190910201019790930201809336
:1002C000010140910001242F30E0809101019091C3
:1002D00002012817390708F4BCCF4423B1F041507C
:1002E000409300018091410190914201A09143010E
:1002F000B09144010196A11DB11D809341019093DD
:100300004201A0934301B093440180914101909137
:100310004201A0914301B09144014097A105B1056C
:1003200078F180914A0190914B01A0914C01B091DC
:100330004D010196A11DB11D80934A0190934B017F
:10034000A0934C01B0934D011BC010924E0110922E
:100350004F0110925001109251018FE080930001E3
:1003600010924A0110924B0110924C0110924D01D3
:1003700010924101109242011092430110924401E7
:1003800080E090E008956093290170932A018093A2
:100390002B0190932C016093310170933201809373
:1003A00033019093340108958BE0809381008DE7B1
:1003B00090E0909389008093880082E080936F00A2
:1003C00010928500109284008091290190912A0159
:1003D000A0912B01B0912C018093310190933201B7
:1003E000A0933301B09334018FB780688FBF089515
:1003F00010928100089581E08093350108951F9245
:100400000F920FB60F9211240BB60F922F933F93BA
:100410004F935F936F937F938F939F93AF93BF930C
:10042000EF93FF938091310190913201A0913301BC
:10043000B09134010197A109B109809331019093E2
:100440003201A0933301B0933401892B8A2B8B2B7B
:1004500091F40E94FB018091290190912A01A091C1
:100460002B01B0912C018093310190933201A09324
:100470003301B0933401FF91EF91BF91AF919F9100
:100480008F917F916F915F914F913F912F910F903D
:100490000BBE0F900FBE0F901F901895442349F08C
:1004A00021E030E002C0220F331F6A95E2F7822B71
:1004B000089521E030E002C0220F331F6A95E2F771
:1004C00020958223089521E030E002C0220F331FDF
:1004D0006A95E2F782230895CF93DF9300D0CDB7DA
:1004E000DEB78FEF87B918B88AB91BB80E94BF0072
:1004F0000E94B100E6E3F1E0FA83E983108281E033
:1005000090E0A0E0B0E081839283A383B4838583ED
:100510009683A783B08781E091E09287818760E529
:1005200070E080E090E00E94C3010E94D40110922C
:10053000350100E010E037C0F801EE0FFF1FEC0FAF
:10054000FD1FE180F280D70115964D915D916D916F
:100550007C91189711968D919D910D90BC91A02D35
:10056000481759076A077B0781F4D7011996ED915F
:10057000FC911A978C91992787FD90950995F70121
:1005800080831582168217821086F70185819681F5
:10059000A781B0850196A11DB11D85839683A78390
:1005A000B0870F5F1F4F0115110531F280913501A2
:1005B0008823E1F310923501BCCFA1E21A2EAA1BC9
:1005C000BB1BFD010DC0AA1FBB1FEE1FFF1FA21703
:1005D000B307E407F50720F0A21BB30BE40BF50B00
:1005E000661F771F881F991F1A9469F76095709589
:1005F000809590959B01AC01BD01CF010895F894C1
:02060000FFCF2A
:10060200101000435331323042206973204C656729
:10061200656E642E2E2E207761697420666F7220BB
:0E06220069742044415259210001000000007B
:00000001FF
